:020000040800F2
:100000000000012059080008E1070008E707000880
:10001000ED070008F3070008F907000800000000DA
:10002000000000000000000000000000FF070008C2
:100030000D080008000000001B080008290800083F
:10004000A9080008A9080008A9080008A9080008CC
:10005000A9080008A9080008A9080008A9080008BC
:10006000A9080008A9080008A9080008A9080008AC
:10007000A9080008A9080008A9080008A90800089C
:10008000A9080008A9080008A90800080000000045
:10009000000000000000000000000000A9080008A7
:1000A000A9080008A9080008A9080008A90800086C
:1000B000A9080008A9080008A9080008A90800085C
:1000C000A9080008A9080008A9080008A90800084C
:1000D000A9080008A9080008A908000800000000F5
:1000E000A9080008A9080008A908000800000000E5
:1000F000000000000000000000000000A908000847
:1001000000000000A9080008A9080008A9080008C4
:1001100000000000000000000000000000000000DF
:10012000FD030008FD030008FD030008FD030008AF
:10013000FD030008000000000000000000000000B7
:10014000000000000000000000000000A9080008F6
:10015000FD030008FD030008FD030008A9080008CE
:10016000A9080008A908000800000000000000001D
:10017000000000000000000000000000000000007F
:1001800000000000A90800080000000000000000B6
:04019000A9080008B2
:1001940010B5054C237833B9044B13B10448AFF3BD
:1001A40000800123237010BDE40000200000000043
:1001B4001C09000808B5034B1BB103490348AFF3FE
:1001C400008008BD00000000E80000201C090008B1
:1001D40080B483B000AF0346FB71134B1B68124A13
:1001E40043F480031360FB79042B0BD80F4B1B687B
:1001F400FA791832012101FA02F211460B4A0B4333
:1002040013600AE00A4B1B68FA79013A012101FAEA
:1002140002F21146064A0B43136000BF0C37BD4679
:100224005DF8047B704700BF3038024004E100E011
:1002340008E100E080B485B000AF0346B9607A609D
:10024400FB73364AFB7B1370FA7B354913469B00DC
:1002540013449B000B441B6800221A6000BFFA7B06
:100264002F4913469B0013449B000B441B681B68D7
:1002740003F00103002BF2D1FA7B294913469B00BA
:1002840013449B000B441B681968FA7B24481346EB
:100294009B0013449B0003441A68224B0B431360D6
:1002A400FA7B1F4913469B0013449B000B440833FD
:1002B4001B68BA681A60FA7B194913469B001344F9
:1002C4009B000B440C331B687A681A60FA7B144950
:1002D40013469B0013449B000B4404331B686422A5
:1002E4001A60FA7B0E4913469B0013449B000B448F
:1002F40010331B681968FA7B094813469B001344A2
:100304009B00034410331B6821F003021A6000BFF2
:100314001437BD465DF8047B704700BF0001002020
:10032400000000209056A00080B483B000AF0346C4
:10033400FB71FA790C4913469B0013449B000B4450
:100344001B681968FA79084813469B0013449B00FC
:1003540003441B6841F001021A6000BF0C37BD461C
:100364005DF8047B704700BF0000002080B485B0B6
:1003740000AF0346FB71FB79032B0CD81A4B1A68A8
:10038400FB791A4951F8233022FA03F3DBB203F064
:100394000103FB730CE0164B1A68FB79043B134909
:1003A40051F8233022FA03F3DBB203F00103FB73A9
:1003B400FA79104913469B0013449B000B441B68B5
:1003C4001968FA790B4813469B0013449B000344B5
:1003D4001B6821F001021A60FB7B18461437BD46E6
:1003E4005DF8047B704700BF00640240A000002059
:1003F400046402400000002080B500AF00F080F9E2
:10040400124B1B78032B0FD8114B1B680F4A127821
:100414001146104A52F82120012101FA02F2114634
:100424000B4A0B4313600EE00B4B1B68074A127810
:10043400043A084951F82220012101FA02F2114636
:10044400054A0B43136000BF80BD00BF00010020BC
:1004540008640240A00000200C64024090B482B002
:1004640000AF0346FB71FA790E4913465B0013444F
:10047400DB000B441B681968FB79012202FA03F3C1
:100484001C46FA79074813465B001344DB00034417
:100494001B6841EA04021A6000BF0837BD4690BCDD
:1004A400704700BFB000002090B482B000AF044693
:1004B400084611461A462346FB710346BB710B4698
:1004C4007B7113463B71FA79584913465B00134418
:1004D400DB000B4404331B681968BB795B000322FF
:1004E40002FA03F3DB431C46FA79504813465B00D7
:1004F4001344DB00034404331B6801EA04021A605A
:10050400FA794A4913465B001344DB000B44043375
:100514001B6819687A79BB795B0002FA03F31C46FD
:10052400FA79424813465B001344DB000344043366
:100534001B6841EA04021A60FA793C4913465B00DD
:100544001344DB000B4408331B681968BB79012290
:1005540002FA03F3DB431C46FA79344813465B0082
:100564001344DB00034408331B6801EA04021A60E5
:10057400FA792E4913465B001344DB000B4408331D
:100584001B6819683B7903F00102BB7902FA03F393
:100594001C46FA79254813465B001344DB000344E8
:1005A40008331B6841EA04021A60FA791F491346AA
:1005B4005B001344DB000B440C331B681968BB79E4
:1005C4005B00032202FA03F3DB431C46FA79174863
:1005D40013465B001344DB0003440C331B6801EA3D
:1005E40004021A60FA79114913465B001344DB00D4
:1005F4000B440C331B6819683B795B1003F003024E
:10060400BB795B0002FA03F31C46FA7907481346E8
:100614005B001344DB0003440C331B6841EA04020F
:100624001A6000BF0837BD4690BC7047B000002078
:1006340090B484B000AF0346FB710B46BB71134604
:100644007B71FA792D4913465B001344DB000B449C
:1006540004331B681B68BA795200032101FA02F2C1
:100664001A40BB795B0022FA03F3012B3DD17B795D
:10067400002B1BD0FA79214913465B001344DB009D
:100684000B4410331B681968BB79012202FA03F387
:100694001C46FA79194813465B001344DB000344F3
:1006A40010331B6841EA04021A601BE0FA7913490B
:1006B40013465B001344DB000B4410331B681968BA
:1006C400BB79012202FA03F3DB431C46FA790B4897
:1006D40013465B001344DB00034410331B6801EA38
:1006E40004021A600023FB7301E00123FB73FB7B0C
:1006F40018461037BD4690BC704700BFB0000020BC
:1007040080B582B000AF0620FFF730FE0346BB7110
:10071400BB79002B1ED00023FB7117E0FB79124A32
:1007240052F82320FB79114951F823309A4205D01D
:10073400012200210020FFF77BFF04E001220121B8
:100744000020FFF775FFFB790133FB71FB79632B05
:10075400E4D904E0012200210020FFF769FF00BF73
:100764000837BD4680BD00BF04010020940200206C
:1007740080B582B000AF0023FB710CE0FB7901333C
:10078400642202FB03F2FB791146124A42F8231059
:10079400FB790133FB71FB79632BEFD90020FFF761
:1007A4005DFE0023012200210020FFF77DFE0023CF
:1007B400012201210020FFF777FE0120FFF708FD49
:1007C400054A04490120FFF735FD0120FFF7ACFD80
:1007D400FEE700BF940200200401002080B400AFB3
:1007E400FEE780B400AFFEE780B400AFFEE780B45C
:1007F40000AFFEE780B400AFFEE780B400AF00BFF7
:10080400BD465DF8047B704780B400AF00BFBD46B1
:100814005DF8047B704780B400AF00BFBD465DF84F
:10082400047B704780B500AF00F03EF800BF80BD88
:1008340080B400AF064BD3F88830054A43F4700304
:10084400C2F8883000BFBD465DF8047B704700BF26
:1008540000ED00E0DFF834D00D480E490E4A0023C5
:1008640002E0D458C4500433C4188C42F9D30B4A60
:100874000B4C002301E013600432A242FBD3FFF7C8
:10088400D7FF00F025F8FFF773FF70470000012041
:1008940000000020E40000203C090008E4000020DF
:1008A40028040020FEE7000080B400AF064B1B784C
:1008B4001A46064B1B681344044A136000BFBD4626
:1008C4005DF8047B704700BFE00000202404002092
:1008D40070B50D4D0D4C641BA4100026A64209D121
:1008E4000B4D0C4C00F018F8641BA4100026A64213
:1008F40005D170BD55F8043B98470136EEE755F82D
:10090400043B98470136F2E734090008340900082B
:100914003409000838090008F8B500BFF8BC08BC61
:100924009E467047F8B500BFF8BC08BC9E467047A9
:04093400B9010008FD
:04093800950100081D
:10093C001064024014640240186402401C640240BB
:10094C0024640240286402402C640240306402405B
:10095C00346402403C6402404064024044640240FF
:10096C00486402404C6402405464024058640240A3
:10097C005C64024060640240646402406C64024047
:10098C007064024074640240786402407C640240EB
:10099C0084640240886402408C640240906402408B
:1009AC00946402409C640240A0640240A46402402F
:1009BC00A8640240AC640240B4640240B8640240D3
:1009CC00BC640240C0640240C4640240CC64024077
:1009DC00050000000B000000150000001B000000CB
:1009EC003038024000000240040002400C0002407B
:1009FC001400024010000240303802400004024053
:100A0C00040402400C04024014040240100402408E
:040A1C0001000000D5
:04000005080008598E
:00000001FF
